{
  "_format": "hh-sol-artifact-1",
  "contractName": "VaultCredit",
  "sourceName": "contracts/VaultCredit.sol",
  "abi": [
    {
      "inputs": [
        {
          "internalType": "bytes32",
          "name": "handle",
          "type": "bytes32"
        },
        {
          "internalType": "address",
          "name": "sender",
          "type": "address"
        }
      ],
      "name": "SenderNotAllowedToUseHandle",
      "type": "error"
    },
    {
      "inputs": [],
      "name": "ZamaProtocolUnsupported",
      "type": "error"
    },
    {
      "anonymous": false,
      "inputs": [
        {
          "indexed": true,
          "internalType": "address",
          "name": "user",
          "type": "address"
        },
        {
          "indexed": false,
          "internalType": "uint256",
          "name": "timestamp",
          "type": "uint256"
        }
      ],
      "name": "ScoreComputed",
      "type": "event"
    },
    {
      "anonymous": false,
      "inputs": [
        {
          "indexed": true,
          "internalType": "address",
          "name": "lender",
          "type": "address"
        },
        {
          "indexed": true,
          "internalType": "address",
          "name": "user",
          "type": "address"
        },
        {
          "indexed": false,
          "internalType": "uint256",
          "name": "timestamp",
          "type": "uint256"
        }
      ],
      "name": "ThresholdChecked",
      "type": "event"
    },
    {
      "inputs": [
        {
          "internalType": "address",
          "name": "user",
          "type": "address"
        },
        {
          "internalType": "externalEuint32",
          "name": "encryptedThreshold",
          "type": "bytes32"
        },
        {
          "internalType": "bytes",
          "name": "inputProof",
          "type": "bytes"
        }
      ],
      "name": "checkCreditThreshold",
      "outputs": [
        {
          "internalType": "ebool",
          "name": "",
          "type": "bytes32"
        }
      ],
      "stateMutability": "nonpayable",
      "type": "function"
    },
    {
      "inputs": [],
      "name": "confidentialProtocolId",
      "outputs": [
        {
          "internalType": "uint256",
          "name": "",
          "type": "uint256"
        }
      ],
      "stateMutability": "view",
      "type": "function"
    },
    {
      "inputs": [
        {
          "internalType": "address",
          "name": "user",
          "type": "address"
        }
      ],
      "name": "getEncryptedScore",
      "outputs": [
        {
          "internalType": "euint32",
          "name": "",
          "type": "bytes32"
        }
      ],
      "stateMutability": "view",
      "type": "function"
    },
    {
      "inputs": [
        {
          "internalType": "address",
          "name": "user",
          "type": "address"
        }
      ],
      "name": "getLastUpdated",
      "outputs": [
        {
          "internalType": "uint256",
          "name": "",
          "type": "uint256"
        }
      ],
      "stateMutability": "view",
      "type": "function"
    },
    {
      "inputs": [
        {
          "internalType": "address",
          "name": "user",
          "type": "address"
        }
      ],
      "name": "hasScore",
      "outputs": [
        {
          "internalType": "bool",
          "name": "",
          "type": "bool"
        }
      ],
      "stateMutability": "view",
      "type": "function"
    },
    {
      "inputs": [
        {
          "internalType": "uint32",
          "name": "income",
          "type": "uint32"
        },
        {
          "internalType": "uint32",
          "name": "debt",
          "type": "uint32"
        },
        {
          "internalType": "uint32",
          "name": "missed",
          "type": "uint32"
        },
        {
          "internalType": "uint32",
          "name": "employment",
          "type": "uint32"
        }
      ],
      "name": "submitCreditDataMock",
      "outputs": [],
      "stateMutability": "nonpayable",
      "type": "function"
    },
    {
      "inputs": [
        {
          "internalType": "externalEuint32",
          "name": "encryptedIncome",
          "type": "bytes32"
        },
        {
          "internalType": "externalEuint32",
          "name": "encryptedDebt",
          "type": "bytes32"
        },
        {
          "internalType": "externalEuint32",
          "name": "encryptedMissedPayments",
          "type": "bytes32"
        },
        {
          "internalType": "externalEuint32",
          "name": "encryptedEmploymentMonths",
          "type": "bytes32"
        },
        {
          "internalType": "bytes",
          "name": "inputProof",
          "type": "bytes"
        }
      ],
      "name": "submitFinancialData",
      "outputs": [],
      "stateMutability": "nonpayable",
      "type": "function"
    }
  ],
  "bytecode": "0x604060808152346200021e576200001562000259565b50466001036200012f576200002962000259565b506200003462000223565b73ca2e8f1f656cd25c01f05d0b243ab1ecd4a8ffb6815273d82385dada1ae3e969447f20a3164f6213100e7560208201527377627828a55156b04ac0dc0eb30467f1a552bb03828201525b80517f9e7b61f58c47dc699ac88507c4f5bb9f121c03808c5676a8078fe583e464970080546001600160a01b03199081166001600160a01b039384161790915560208301517f9e7b61f58c47dc699ac88507c4f5bb9f121c03808c5676a8078fe583e464970180548316918416919091179055918301517f9e7b61f58c47dc699ac88507c4f5bb9f121c03808c5676a8078fe583e464970280549093169116179055516116429081620002798239f35b4662aa36a7036200019f576200014462000259565b506200014f62000223565b73f0ffdc93b7e186bc2f8cb3daa75d86d1930a433d81527392c920834ec8941d2c77d188936e1f7a6f49c127602082015273be0e383937d564d7ff0bc3b46c51f0bf8d5c311a828201526200007f565b46617a69036200020e57620001b362000259565b50620001be62000223565b7350157cffd6bbfa2dece204a89ec419c23ef5755d815273e3a9105a3a932253a70f126eb1e3b589c643dd24602082015273901f8942346f7ab3a01f6d7613119bca447bb030828201526200007f565b516373cac13b60e01b8152600490fd5b600080fd5b60405190606082016001600160401b038111838210176200024357604052565b634e487b7160e01b600052604160045260246000fd5b6200026362000223565b9060008252600060208301526000604083015256fe608080604052600436101561001357600080fd5b60003560e01c90816311e13ae814610a035750806324a573ca146109ac578063578e42951461096a578063857dfce0146108355780638927b03014610812578063d2481a91146100cb5763ef12969b1461006c57600080fd5b346100c65760203660031901126100c6576001600160a01b0361008d610d28565b168060005260006020526100ab60ff60026040600020015416610dae565b60005260006020526020600160406000200154604051908152f35b600080fd5b346100c65760a03660031901126100c65760843567ffffffffffffffff81116100c6576100fc903690600401610d3e565b600061011461010c368486610e5f565b600435610ea6565b92610158610150610131610129368786610e5f565b602435610ea6565b92610148610140368884610e5f565b604435610ea6565b953691610e5f565b606435610ea6565b93602060018060a01b036000805160206115cd8339815191525416604460405180968193639cd07acb60e01b83526101f46004840152600460248401525af1908115610605576000916107dd575b6000935080156107cb575b6000805160206115cd83398151915254604051635a53accb60e01b815260048101929092526103e86024830152600160f81b6044830152909360209185916064918391906001600160a01b03165af1801561060557600090610798575b60009350602060018060a01b036000805160206115cd8339815191525416604460405180978193639cd07acb60e01b835260966004840152600460248401525af193841561060557600094610760575b509061026f60009461027593611328565b906113a9565b90801561074e575b6000805160206115cd83398151915254604051635a53accb60e01b815260048101929092526107d06024830152600160f81b6044830152909260209184916064918391906001600160a01b03165af180156106055760009061071b575b60009250602060018060a01b036000805160206115cd8339815191525416604460405180968193639cd07acb60e01b835260c86004840152600460248401525af1928315610605576000936106e5575b5061033b6103699361035b92611328565b61035561034f6103496111ec565b836113a9565b846110ae565b9261142a565b6103636111ec565b916114ab565b6000602060018060a01b036000805160206115cd8339815191525416604460405180948193639cd07acb60e01b8352600c6004840152600460248401525af1908115610605576000916106b2575b506103c490600093611328565b602060018060a01b036000805160206115cd8339815191525416604460405180968193639cd07acb60e01b835260146004840152600460248401525af19283156106055760009361067c575b5061033b6104219361035b9261154b565b6000602060018060a01b036000805160206115cd8339815191525416604460405180948193639cd07acb60e01b8352603c6004840152600460248401525af190811561060557600091610649575b5061047c90600093611328565b602060018060a01b036000805160206115cd8339815191525416604460405180968193639cd07acb60e01b835260026004840152600460248401525af192831561060557600093610611575b509061026f6000936104d99361154b565b602060018060a01b036000805160206115cd8339815191525416604460405180958193639cd07acb60e01b83526103526004840152600460248401525af1908115610605576000916105cf575b6105309250611328565b3360005260006020526002604060002082815542600182015501600160ff1982541617905580801591826105bc575b61056a9030906112bd565b906105a9575b61057b9033906112bd565b6040514281527fdf09963ed4e8d4cf60a05abb4a38389e03ec65c8f5cf3babcd2468fb11cb9d5d60203392a2005b5061057b6105b561126d565b9050610570565b5061056a6105c861126d565b905061055f565b90506020823d6020116105fd575b816105ea60209383610e3d565b810103126100c657610530915190610526565b3d91506105dd565b6040513d6000823e3d90fd5b9250906020833d602011610641575b8161062d60209383610e3d565b810103126100c6579151919061026f6104c8565b3d9150610620565b90506020813d602011610674575b8161066460209383610e3d565b810103126100c65751600061046f565b3d9150610657565b92506020833d6020116106aa575b8161069760209383610e3d565b810103126100c65791519161033b610410565b3d915061068a565b90506020813d6020116106dd575b816106cd60209383610e3d565b810103126100c6575160006103b7565b3d91506106c0565b92506020833d602011610713575b8161070060209383610e3d565b810103126100c65791519161033b61032a565b3d91506106f3565b506020823d602011610746575b8161073560209383610e3d565b810103126100c657600091516102da565b3d9150610728565b50602061075961126d565b905061027d565b9350906020843d602011610790575b8161077c60209383610e3d565b810103126100c6579251929061026f61025e565b3d915061076f565b506020833d6020116107c3575b816107b260209383610e3d565b810103126100c6576000925161020e565b3d91506107a5565b5060206107d661126d565b90506101b1565b90506020833d60201161080a575b816107f860209383610e3d565b810103126100c65760009251906101a6565b3d91506107eb565b346100c65760003660031901126100c657602061082d61116c565b604051908152f35b346100c65760603660031901126100c65761084e610d28565b6044359067ffffffffffffffff82116100c6576108bd6108a9610878610129943690600401610d3e565b949060018060a01b03809516958660005260006020526108a260ff60026040600020015416610dae565b3691610e5f565b8360005260006020526040600020546110ae565b918291831561095a575b6000805160206115ed8339815191525416803b156100c657604051630f8e573b60e21b815260048101949094523360248501526000908490604490829084905af19283156106055760209361094b575b506040514281527fc9a616965be4d1830e2911ef79ef575cde1d921f50361abc6758fa521d49f93b843392a3604051908152f35b61095490610e13565b83610917565b925061096461119d565b926108c7565b346100c65760203660031901126100c6576001600160a01b0361098b610d28565b166000526000602052602060ff600260406000200154166040519015158152f35b346100c65760203660031901126100c6576001600160a01b036109cd610d28565b168060005260006020526109eb60ff60026040600020015416610dae565b60005260006020526020604060002054604051908152f35b346100c65760803660031901126100c6576004359063ffffffff908183168093036100c65760249283358381168091036100c657604435848116918282036100c65760643593868516958686036100c657600c8511610cd55750866103e86101f49204609682821611610ccd575b1601868111610cb85786916107d08291049160c884841611610caf575b8380610a9985610d6c565b16911610610ca257600c91610aad91610d98565b935b1015610c97576014915b160290848216918203610c825784610ad083610d6c565b1681861610610c7557603c91610ae591610d98565b925b1015610c6d575b60011b906401fffffffe63fffffffe831692168203610c585782160190808211610c43576000926103528383168110610c3a575b5060049060018060a01b036000805160206115cd83398151915254169260405194639cd07acb60e01b865216828501528301528160448160209586945af190811561060557600091610c0d575b5033600052600082526002604060002082815542600182015501600160ff198254161790558080159182610bfa575b610ba99030906112bd565b90610be7575b610bba9033906112bd565b7fdf09963ed4e8d4cf60a05abb4a38389e03ec65c8f5cf3babcd2468fb11cb9d5d604051914283523392a2005b50610bba610bf361126d565b9050610baf565b50610ba9610c0661126d565b9050610b9e565b90508181813d8311610c33575b610c248183610e3d565b810103126100c6575182610b6f565b503d610c1a565b92506004610b22565b82634e487b7160e01b60005260116004526000fd5b83634e487b7160e01b60005260116004526000fd5b50603c610aee565b5050603c61012c92610ae7565b85634e487b7160e01b60005260116004526000fd5b60149150600c610ab9565b5050600c61012c93610aaf565b60c89250610a8e565b87634e487b7160e01b60005260116004526000fd5b506096610a71565b62461bcd60e51b8152602060048201526029898201527f5661756c744372656469743a206d6973736564207061796d656e7473206d75736044820152683a103132901816989960b91b6064820152608490fd5b600435906001600160a01b03821682036100c657565b9181601f840112156100c65782359167ffffffffffffffff83116100c657602083818601950101116100c657565b9061012c63ffffffff80931601918211610d8257565b634e487b7160e01b600052601160045260246000fd5b63ffffffff9182169082160391908211610d8257565b15610db557565b60405162461bcd60e51b815260206004820152603060248201527f5661756c744372656469743a206e6f2073636f7265206f6e207265636f72642060448201526f666f722074686973206164647265737360801b6064820152608490fd5b67ffffffffffffffff8111610e2757604052565b634e487b7160e01b600052604160045260246000fd5b90601f8019910116810190811067ffffffffffffffff821117610e2757604052565b92919267ffffffffffffffff8211610e275760405191610e89601f8201601f191660200184610e3d565b8294818452818301116100c6578281602093846000960137010152565b815190919015610fe4576000805160206115cd8339815191525460405163045fc19560e11b81526004810193909352336024840152608060448401528151608484018190526001600160a01b03929183169184919060005b828110610fcc5750509181600060a4828683836020998401015260046064830152601f801991011681010301925af191821561060557600092610f98575b506000805160206115ed8339815191525416803b156100c657604051630f8e573b60e21b815260048101839052336024820152906000908290604490829084905af1801561060557610f8c575090565b610f9590610e13565b90565b9091506020813d602011610fc4575b81610fb460209383610e3d565b810103126100c657519038610f3c565b3d9150610fa7565b602082820181015160a4898401015287945001610efe565b5080156110a5576000805160206115ed833981519152546040516382027b6d60e01b81526004810183905233602482015290602090829060449082906001600160a01b03165afa90811561060557600091611063575b50156110435790565b604051630276b5d960e01b81526004810191909152336024820152604490fd5b6020813d60201161109d575b8161107c60209383610e3d565b81010312611099575190811515820361109657503861103a565b80fd5b5080fd5b3d915061106f565b50610f9561126d565b801561115e575b811561114e575b60018060a01b036000805160206115cd83398151915254169160405191631391547f60e01b835260048301526024820152602081606481600080968160448401525af191821561114257809261111157505090565b9091506020823d60201161113a575b8161112d60209383610e3d565b8101031261109657505190565b3d9150611120565b604051903d90823e3d90fd5b905061115861126d565b906110bc565b5061116761126d565b6110b5565b4660010361117957600190565b4662aa36a7036111895761271190565b617a69461461119757600090565b60001990565b60018060a01b036000805160206115cd8339815191525416604051639cd07acb60e01b8152602081604481600080968160048401528160248401525af191821561114257809261111157505090565b6000602060018060a01b036000805160206115cd8339815191525416604460405180948193639cd07acb60e01b835261012c6004840152600460248401525af19081156106055760009161123e575090565b90506020813d602011611265575b8161125960209383610e3d565b810103126100c6575190565b3d915061124c565b60018060a01b036000805160206115cd8339815191525416604051639cd07acb60e01b815260208160448160008096816004840152600460248401525af191821561114257809261111157505090565b6000805160206115ed833981519152546001600160a01b031691823b156100c657604051635ca4b5b160e11b815260048101929092526001600160a01b03166024820152906000908290604490829084905af180156106055761131d5750565b61132690610e13565b565b801561139b575b811561138b575b60018060a01b036000805160206115cd833981519152541691604051916304559f7160e01b835260048301526024820152602081606481600080968160448401525af191821561114257809261111157505090565b905061139561126d565b90611336565b506113a461126d565b61132f565b801561141c575b811561140c575b60018060a01b036000805160206115cd8339815191525416916040519163022f65e760e31b835260048301526024820152602081606481600080968160448401525af191821561114257809261111157505090565b905061141661126d565b906113b7565b5061142561126d565b6113b0565b801561149d575b811561148d575b60018060a01b036000805160206115cd833981519152541691604051916303056db360e31b835260048301526024820152602081606481600080968160448401525af191821561114257809261111157505090565b905061149761126d565b90611438565b506114a661126d565b611431565b9190821561153b575b801561152d575b8115611517575b606460209293600060018060a01b036000805160206115cd83398151915254166040519687958694637702dcff60e01b86526004860152602485015260448401525af19081156106055760009161123e575090565b60209150606461152561126d565b9250506114c2565b5061153661126d565b6114bb565b915061154561119d565b916114b4565b80156115be575b81156115ae575b60018060a01b036000805160206115cd83398151915254169160405191630afe14ad60e31b835260048301526024820152602081606481600080968160448401525af191821561114257809261111157505090565b90506115b861126d565b90611559565b506115c761126d565b61155256fe9e7b61f58c47dc699ac88507c4f5bb9f121c03808c5676a8078fe583e46497019e7b61f58c47dc699ac88507c4f5bb9f121c03808c5676a8078fe583e4649700a26469706673582212201e392cfba75f718c14a5fafebf5e3cce4a869cc5a6a143a65d012af17927214664736f6c63430008180033",
  "linkReferences": {},
  "deployedLinkReferences": {}
}