{
  "_format": "hh-sol-artifact-1",
  "contractName": "VaultCredit",
  "sourceName": "contracts/VaultCredit.sol",
  "abi": [
    {
      "inputs": [
        {
          "internalType": "bytes32",
          "name": "handle",
          "type": "bytes32"
        },
        {
          "internalType": "address",
          "name": "sender",
          "type": "address"
        }
      ],
      "name": "SenderNotAllowedToUseHandle",
      "type": "error"
    },
    {
      "inputs": [],
      "name": "ZamaProtocolUnsupported",
      "type": "error"
    },
    {
      "anonymous": false,
      "inputs": [
        {
          "indexed": true,
          "internalType": "address",
          "name": "user",
          "type": "address"
        },
        {
          "indexed": false,
          "internalType": "uint256",
          "name": "timestamp",
          "type": "uint256"
        }
      ],
      "name": "ScoreComputed",
      "type": "event"
    },
    {
      "anonymous": false,
      "inputs": [
        {
          "indexed": true,
          "internalType": "address",
          "name": "lender",
          "type": "address"
        },
        {
          "indexed": true,
          "internalType": "address",
          "name": "user",
          "type": "address"
        },
        {
          "indexed": false,
          "internalType": "uint256",
          "name": "timestamp",
          "type": "uint256"
        }
      ],
      "name": "ThresholdChecked",
      "type": "event"
    },
    {
      "inputs": [
        {
          "internalType": "address",
          "name": "user",
          "type": "address"
        },
        {
          "internalType": "externalEuint32",
          "name": "encryptedThreshold",
          "type": "bytes32"
        },
        {
          "internalType": "bytes",
          "name": "inputProof",
          "type": "bytes"
        }
      ],
      "name": "checkCreditThreshold",
      "outputs": [
        {
          "internalType": "ebool",
          "name": "",
          "type": "bytes32"
        }
      ],
      "stateMutability": "nonpayable",
      "type": "function"
    },
    {
      "inputs": [],
      "name": "confidentialProtocolId",
      "outputs": [
        {
          "internalType": "uint256",
          "name": "",
          "type": "uint256"
        }
      ],
      "stateMutability": "view",
      "type": "function"
    },
    {
      "inputs": [
        {
          "internalType": "address",
          "name": "user",
          "type": "address"
        }
      ],
      "name": "getEncryptedScore",
      "outputs": [
        {
          "internalType": "euint32",
          "name": "",
          "type": "bytes32"
        }
      ],
      "stateMutability": "view",
      "type": "function"
    },
    {
      "inputs": [
        {
          "internalType": "address",
          "name": "user",
          "type": "address"
        }
      ],
      "name": "getLastUpdated",
      "outputs": [
        {
          "internalType": "uint256",
          "name": "",
          "type": "uint256"
        }
      ],
      "stateMutability": "view",
      "type": "function"
    },
    {
      "inputs": [
        {
          "internalType": "address",
          "name": "user",
          "type": "address"
        }
      ],
      "name": "hasScore",
      "outputs": [
        {
          "internalType": "bool",
          "name": "",
          "type": "bool"
        }
      ],
      "stateMutability": "view",
      "type": "function"
    },
    {
      "inputs": [
        {
          "internalType": "externalEuint32",
          "name": "encryptedIncome",
          "type": "bytes32"
        },
        {
          "internalType": "externalEuint32",
          "name": "encryptedDebt",
          "type": "bytes32"
        },
        {
          "internalType": "externalEuint32",
          "name": "encryptedMissedPayments",
          "type": "bytes32"
        },
        {
          "internalType": "externalEuint32",
          "name": "encryptedEmploymentMonths",
          "type": "bytes32"
        },
        {
          "internalType": "bytes",
          "name": "inputProof",
          "type": "bytes"
        }
      ],
      "name": "submitFinancialData",
      "outputs": [],
      "stateMutability": "nonpayable",
      "type": "function"
    }
  ],
  "bytecode": "0x604060808152346200021e576200001562000259565b50466001036200012f576200002962000259565b506200003462000223565b73ca2e8f1f656cd25c01f05d0b243ab1ecd4a8ffb6815273d82385dada1ae3e969447f20a3164f6213100e7560208201527377627828a55156b04ac0dc0eb30467f1a552bb03828201525b80517f9e7b61f58c47dc699ac88507c4f5bb9f121c03808c5676a8078fe583e464970080546001600160a01b03199081166001600160a01b039384161790915560208301517f9e7b61f58c47dc699ac88507c4f5bb9f121c03808c5676a8078fe583e464970180548316918416919091179055918301517f9e7b61f58c47dc699ac88507c4f5bb9f121c03808c5676a8078fe583e464970280549093169116179055516112cd9081620002798239f35b4662aa36a7036200019f576200014462000259565b506200014f62000223565b73f0ffdc93b7e186bc2f8cb3daa75d86d1930a433d81527392c920834ec8941d2c77d188936e1f7a6f49c127602082015273be0e383937d564d7ff0bc3b46c51f0bf8d5c311a828201526200007f565b46617a69036200020e57620001b362000259565b50620001be62000223565b7350157cffd6bbfa2dece204a89ec419c23ef5755d815273e3a9105a3a932253a70f126eb1e3b589c643dd24602082015273901f8942346f7ab3a01f6d7613119bca447bb030828201526200007f565b516373cac13b60e01b8152600490fd5b600080fd5b60405190606082016001600160401b038111838210176200024357604052565b634e487b7160e01b600052604160045260246000fd5b6200026362000223565b9060008252600060208301526000604083015256fe6080604052600436101561001257600080fd5b60003560e01c806324a573ca1461099e578063578e42951461095c578063857dfce0146108275780638927b03014610804578063d2481a91146100bd5763ef12969b1461005e57600080fd5b346100b85760203660031901126100b8576001600160a01b0361007f6109f5565b1680600052600060205261009d60ff60026040600020015416610a39565b60005260006020526020600160406000200154604051908152f35b600080fd5b346100b85760a03660031901126100b85760843567ffffffffffffffff81116100b8576100ee903690600401610a0b565b60006101066100fe368486610aea565b600435610b31565b9261014a61014261012361011b368786610aea565b602435610b31565b9261013a610132368884610aea565b604435610b31565b953691610aea565b606435610b31565b93602060018060a01b036000805160206112588339815191525416604460405180968193639cd07acb60e01b83526101f46004840152600460248401525af19081156105f7576000916107cf575b6000935080156107bd575b60008051602061125883398151915254604051635a53accb60e01b815260048101929092526103e86024830152600160f81b6044830152909360209185916064918391906001600160a01b03165af180156105f75760009061078a575b60009350602060018060a01b036000805160206112588339815191525416604460405180978193639cd07acb60e01b835260966004840152600460248401525af19384156105f757600094610752575b509061026160009461026793610e28565b90610ea9565b908015610740575b60008051602061125883398151915254604051635a53accb60e01b815260048101929092526107d06024830152600160f81b6044830152909260209184916064918391906001600160a01b03165af180156105f75760009061070d575b60009250602060018060a01b036000805160206112588339815191525416604460405180968193639cd07acb60e01b835260c86004840152600460248401525af19283156105f7576000936106d7575b5061032d61035b9361034d92610e28565b61034761034161033b6111b5565b83610ea9565b84610d39565b92610f2a565b6103556111b5565b91610fab565b6000602060018060a01b036000805160206112588339815191525416604460405180948193639cd07acb60e01b8352600c6004840152600460248401525af19081156105f7576000916106a4575b506103b690600093610e28565b602060018060a01b036000805160206112588339815191525416604460405180968193639cd07acb60e01b835260146004840152600460248401525af19283156105f75760009361066e575b5061032d6104139361034d9261107a565b6000602060018060a01b036000805160206112588339815191525416604460405180948193639cd07acb60e01b8352603c6004840152600460248401525af19081156105f75760009161063b575b5061046e90600093610e28565b602060018060a01b036000805160206112588339815191525416604460405180968193639cd07acb60e01b835260026004840152600460248401525af19283156105f757600093610603575b50906102616000936104cb9361107a565b602060018060a01b036000805160206112588339815191525416604460405180958193639cd07acb60e01b83526103526004840152600460248401525af19081156105f7576000916105c1575b6105229250610e28565b3360005260006020526002604060002082815542600182015501600160ff1982541617905580801591826105ae575b61055c9030906110fb565b9061059b575b61056d9033906110fb565b6040514281527fdf09963ed4e8d4cf60a05abb4a38389e03ec65c8f5cf3babcd2468fb11cb9d5d60203392a2005b5061056d6105a7611207565b9050610562565b5061055c6105ba611207565b9050610551565b90506020823d6020116105ef575b816105dc60209383610ac8565b810103126100b857610522915190610518565b3d91506105cf565b6040513d6000823e3d90fd5b9250906020833d602011610633575b8161061f60209383610ac8565b810103126100b857915191906102616104ba565b3d9150610612565b90506020813d602011610666575b8161065660209383610ac8565b810103126100b857516000610461565b3d9150610649565b92506020833d60201161069c575b8161068960209383610ac8565b810103126100b85791519161032d610402565b3d915061067c565b90506020813d6020116106cf575b816106bf60209383610ac8565b810103126100b8575160006103a9565b3d91506106b2565b92506020833d602011610705575b816106f260209383610ac8565b810103126100b85791519161032d61031c565b3d91506106e5565b506020823d602011610738575b8161072760209383610ac8565b810103126100b857600091516102cc565b3d915061071a565b50602061074b611207565b905061026f565b9350906020843d602011610782575b8161076e60209383610ac8565b810103126100b85792519290610261610250565b3d9150610761565b506020833d6020116107b5575b816107a460209383610ac8565b810103126100b85760009251610200565b3d9150610797565b5060206107c8611207565b90506101a3565b90506020833d6020116107fc575b816107ea60209383610ac8565b810103126100b8576000925190610198565b3d91506107dd565b346100b85760003660031901126100b857602061081f610df7565b604051908152f35b346100b85760603660031901126100b8576108406109f5565b6044359067ffffffffffffffff82116100b8576108af61089b61086a61011b943690600401610a0b565b949060018060a01b038095169586600052600060205261089460ff60026040600020015416610a39565b3691610aea565b836000526000602052604060002054610d39565b918291831561094c575b6000805160206112788339815191525416803b156100b857604051630f8e573b60e21b815260048101949094523360248501526000908490604490829084905af19283156105f75760209361093d575b506040514281527fc9a616965be4d1830e2911ef79ef575cde1d921f50361abc6758fa521d49f93b843392a3604051908152f35b61094690610a9e565b83610909565b9250610956611166565b926108b9565b346100b85760203660031901126100b8576001600160a01b0361097d6109f5565b166000526000602052602060ff600260406000200154166040519015158152f35b346100b85760203660031901126100b8576001600160a01b036109bf6109f5565b168060005260006020526109dd60ff60026040600020015416610a39565b60005260006020526020604060002054604051908152f35b600435906001600160a01b03821682036100b857565b9181601f840112156100b85782359167ffffffffffffffff83116100b857602083818601950101116100b857565b15610a4057565b60405162461bcd60e51b815260206004820152603060248201527f5661756c744372656469743a206e6f2073636f7265206f6e207265636f72642060448201526f666f722074686973206164647265737360801b6064820152608490fd5b67ffffffffffffffff8111610ab257604052565b634e487b7160e01b600052604160045260246000fd5b90601f8019910116810190811067ffffffffffffffff821117610ab257604052565b92919267ffffffffffffffff8211610ab25760405191610b14601f8201601f191660200184610ac8565b8294818452818301116100b8578281602093846000960137010152565b815190919015610c6f576000805160206112588339815191525460405163045fc19560e11b81526004810193909352336024840152608060448401528151608484018190526001600160a01b03929183169184919060005b828110610c575750509181600060a4828683836020998401015260046064830152601f801991011681010301925af19182156105f757600092610c23575b506000805160206112788339815191525416803b156100b857604051630f8e573b60e21b815260048101839052336024820152906000908290604490829084905af180156105f757610c17575090565b610c2090610a9e565b90565b9091506020813d602011610c4f575b81610c3f60209383610ac8565b810103126100b857519038610bc7565b3d9150610c32565b602082820181015160a4898401015287945001610b89565b508015610d3057600080516020611278833981519152546040516382027b6d60e01b81526004810183905233602482015290602090829060449082906001600160a01b03165afa9081156105f757600091610cee575b5015610cce5790565b604051630276b5d960e01b81526004810191909152336024820152604490fd5b6020813d602011610d28575b81610d0760209383610ac8565b81010312610d245751908115158203610d21575038610cc5565b80fd5b5080fd5b3d9150610cfa565b50610c20611207565b8015610de9575b8115610dd9575b60018060a01b0360008051602061125883398151915254169160405191631391547f60e01b835260048301526024820152602081606481600080968160448401525af1918215610dcd578092610d9c57505090565b9091506020823d602011610dc5575b81610db860209383610ac8565b81010312610d2157505190565b3d9150610dab565b604051903d90823e3d90fd5b9050610de3611207565b90610d47565b50610df2611207565b610d40565b46600103610e0457600190565b4662aa36a703610e145761271190565b617a694614610e2257600090565b60001990565b8015610e9b575b8115610e8b575b60018060a01b03600080516020611258833981519152541691604051916304559f7160e01b835260048301526024820152602081606481600080968160448401525af1918215610dcd578092610d9c57505090565b9050610e95611207565b90610e36565b50610ea4611207565b610e2f565b8015610f1c575b8115610f0c575b60018060a01b036000805160206112588339815191525416916040519163022f65e760e31b835260048301526024820152602081606481600080968160448401525af1918215610dcd578092610d9c57505090565b9050610f16611207565b90610eb7565b50610f25611207565b610eb0565b8015610f9d575b8115610f8d575b60018060a01b03600080516020611258833981519152541691604051916303056db360e31b835260048301526024820152602081606481600080968160448401525af1918215610dcd578092610d9c57505090565b9050610f97611207565b90610f38565b50610fa6611207565b610f31565b9190821561106a575b801561105c575b8115611046575b606460209293600060018060a01b0360008051602061125883398151915254166040519687958694637702dcff60e01b86526004860152602485015260448401525af19081156105f757600091611017575090565b90506020813d60201161103e575b8161103260209383610ac8565b810103126100b8575190565b3d9150611025565b602091506064611054611207565b925050610fc2565b50611065611207565b610fbb565b9150611074611166565b91610fb4565b80156110ed575b81156110dd575b60018060a01b0360008051602061125883398151915254169160405191630afe14ad60e31b835260048301526024820152602081606481600080968160448401525af1918215610dcd578092610d9c57505090565b90506110e7611207565b90611088565b506110f6611207565b611081565b600080516020611278833981519152546001600160a01b031691823b156100b857604051635ca4b5b160e11b815260048101929092526001600160a01b03166024820152906000908290604490829084905af180156105f75761115b5750565b61116490610a9e565b565b60018060a01b036000805160206112588339815191525416604051639cd07acb60e01b8152602081604481600080968160048401528160248401525af1918215610dcd578092610d9c57505090565b6000602060018060a01b036000805160206112588339815191525416604460405180948193639cd07acb60e01b835261012c6004840152600460248401525af19081156105f757600091611017575090565b60018060a01b036000805160206112588339815191525416604051639cd07acb60e01b815260208160448160008096816004840152600460248401525af1918215610dcd578092610d9c5750509056fe9e7b61f58c47dc699ac88507c4f5bb9f121c03808c5676a8078fe583e46497019e7b61f58c47dc699ac88507c4f5bb9f121c03808c5676a8078fe583e4649700a26469706673582212209bea3989817a4365b8abe2ec625dd6a6d7706fd43b37ad94ca888ee7899c9b3a64736f6c63430008180033",
  "linkReferences": {},
  "deployedLinkReferences": {}
}